:020000040800F2
:100000003808002001010008090100080B01000860
:100010000D0100080F010008110100080000000098
:1000200000000000000000000000000013010008B4
:100030001501000800000000170100081901000860
:100040001B0100081B0100081B0100081B01000820
:100050001B0100081B0100081B0100081B01000810
:100060001B0100081B0100081B0100081B01000800
:100070001B0100081B0100081B0100081B010008F0
:100080001B0100081B0100081B0100081B010008E0
:100090001B0100081B0100081B0100081B010008D0
:1000A0001B0100081B0100081B0100081B010008C0
:1000B0001B0100081B0100081B0100081B010008B0
:1000C0001B0100081B0100081B0100081B010008A0
:1000D0001B0100088D0500081B0100081B0100081A
:1000E0001B0100081B0100081B010008DFF80CD0F1
:1000F00000F018F8004800477D0A00083808002082
:100100000648804706480047FEE7FEE7FEE7FEE7B1
:10011000FEE7FEE7FEE7FEE7FEE7FEE72D05000847
:10012000ED000008064C074D06E0E06840F00103D2
:1001300094E8070098471034AC42F6D3FFF7DAFF93
:10014000380C0008580C00082DE9F0410246002543
:100150000026002000230024002791F803C00CF0A3
:100160000F0591F803C00CF0100CBCF1000F03D088
:1001700091F802C04CEA050591F800C0BCF1000FEF
:1001800031D0146800202BE04FF0010C0CFA00F382
:10019000B1F800C00CEA03069E4220D183004FF064
:1001A0000F0C0CFA03F7BC4305FA03FC4CEA0404F9
:1001B00091F803C0BCF1280F06D14FF0010C0CFAE6
:1001C00000FCC2F814C00AE091F803C0BCF1480F6B
:1001D00005D14FF0010C0CFA00FCC2F810C0401C15
:1001E0000828D1D31460B1F800C0BCF1FF0F34DD92
:1001F000546800202EE000F1080C4FF0010808FAC6
:100200000CF3B1F800C00CEA03069E4221D1830032
:100210004FF00F0C0CFA03F7BC4305FA03FC4CEA51
:10022000040491F803C0BCF1280F05D100F1080CBB
:1002300008FA0CF8C2F8148091F803C0BCF1480F1A
:1002400007D100F1080C4FF0010808FA0CF8C2F8C9
:100250001080401C0828CED35460BDE8F081416175
:100260007047016170474FF6FF7101800221817074
:100270000421C1707047000070B5002100230F22D7
:10028000C47804B3154C246804F4E064C4F5E06455
:10029000210AC1F10403CA40447804FA03F18478C6
:1002A0001440214309010E4C0678A155047804F04E
:1002B0001F050124AC4005786D11AD0005F1E02566
:1002C000C5F8004109E0047804F01F050124AC40A2
:1002D000044D0678761145F8264070BD0CED00E01F
:1002E00000E400E080E100E029B1064A126902431F
:1002F000044B1A6104E0034A12698243014B1A61FC
:10030000704700000010024029B1064A926902437A
:10031000044B9A6104E0034A92698243014B9A615B
:10032000704700000010024029B1064AD26802431B
:10033000044BDA6004E0034AD2688243014BDA607E
:10034000704700000010024030B500210022002458
:1003500000232D4D6D6805F00C0121B1042905D055
:10036000082923D105E0294D056022E0274D0560CD
:100370001FE0254D6D6805F47012234D6D6805F47E
:100380008034022505EB92421CB9214D554305608E
:100390000BE01D4D6D6805F400351DB11C4D554336
:1003A000056002E0194D5543056002E0174D0560F8
:1003B00000BF00BF144D6D6805F0F0010909154D2F
:1003C0006B5C0568DD4045600F4D6D6805F4E061CC
:1003D000090A104D6B5C4568DD4085600A4D6D680B
:1003E00005F46051C90A0B4D6B5C4568DD40C56082
:1003F000054D6D6805F44041890B074D6B5CC56880
:10040000B5FBF3F5056130BD0010024000127A0023
:1004100000093D001C0000202C00002010B500F059
:1004200001F810BD0CB50020019000903348006821
:1004300040F480303149086000BF3048006800F463
:10044000003000900198401C0190009818B9019864
:10045000B0F5A06FF1D12948006800F4003010B168
:100460000120009001E0002000900098012843D175
:100470002348006840F010002149086008460068E1
:1004800020F0070008600846006840F0020008609D
:100490001A4840681949486008464068486008465C
:1004A000406840F4806048600846406820F47C1052
:1004B00048600846406840F4E81048600846006814
:1004C00040F08070086000BF0C48006800F00070C9
:1004D0000028F9D00948406820F003000749486027
:1004E0000846406840F00200486000BF034840688A
:1004F00000F00C000828F9D10CBD000000100240EB
:1005000000200240042808D14FF0E021096941F0A1
:1005100004014FF0E022116107E04FF0E02109698A
:1005200021F004014FF0E0221161704710B513482B
:10053000006840F001001149086008464068104911
:1005400008400E494860084600680E4908400B49BB
:1005500008600846006820F480200860084640686B
:1005600020F4FE0048604FF41F008860FFF756FF3C
:100570004FF000600449086010BD00000010024008
:100580000000FFF8FFFFF6FE08ED00E008B540F2BE
:100590002551174800F0B3F8012810D1144800F095
:1005A00069F9C1B2134802880088401C114B1880B9
:1005B0001148815440F225510D4800F02AF840F2CC
:1005C00024410B4800F09BF801280FD1084800880F
:1005D00000900748001D0088009000200649054A49
:1005E0001288885401200549087000BF08BD00002A
:1005F00000380140140000203400002016000020C4
:1006000001F40072B2F5007F00D100BFCA4302803E
:10061000704710B50022002340F66A14A14200D1B1
:1006200000BF0A1201249440A3B2DC43048010BD31
:1006300021B1828942F40052828104E082894DF620
:10064000FF731A408281704710B5044620488442E7
:1006500009D101218803FFF767FE00214FF4804094
:10066000FFF762FE32E01B48844209D101214804B1
:10067000FFF73AFE00214FF40030FFF735FE25E08A
:100680001548844209D101218804FFF72DFE00217D
:100690004FF48020FFF728FE18E01048844209D16B
:1006A0000121C804FFF720FE00214FF40020FFF7CE
:1006B0001BFE0BE00A48844208D101210805FFF720
:1006C00013FE00214FF48010FFF70EFE10BD000056
:1006D000003801400044004000480040004C004009
:1006E0000050004002460020B1F5007F00D100BF5D
:1006F00013880B400BB1012000E00020704770B55B
:100700000246002400230025002040F66A16B1426C
:1007100000D100BFC1F3421501F01F03012606FA04
:1007200003F3012D02D19689334006E0022D02D158
:10073000168A334001E0968A33400C12012606FAED
:1007400004F41688344013B10CB1012000E00020FD
:1007500070BDF0B50346002400260025002040F6B9
:100760006A17B94200D100BF1846C1F3421401F024
:100770001F06012707FA06F5012C01D10C3004E011
:10078000022C01D1103000E014301AB107682F4359
:10079000076002E00768AF430760F0BD2DE9F0474E
:1007A00086B005460E460024A24600BFA14600279B
:1007B000B08900B100BF2F462C8A4CF6FF70044070
:1007C000F08804432C82AC894EF6F3100440B088C4
:1007D00031890843718908430443AC81AC8A4FF6E0
:1007E000FF400440B0890443AC8201A8FFF7ACFD90
:1007F0001F48874202D1DDF810A001E0DDF80CA00F
:10080000A88900F4004040B10AEBCA0000EB0A10CE
:1008100031684900B0FBF1F807E00AEBCA0000EBD1
:100820000A1031688900B0FBF1F86420B8FBF0F0E1
:1008300004012009642101FB1089A88900F400400B
:1008400040B1322000EBC900B0FBF1F000F007002E
:10085000044308E0322000EB09106421B0FBF1F002
:1008600000F00F0004432C8106B0BDE8F0870000C3
:100870000038014001468888C0F308007047C1F382
:100880000802828070474FF4165101600021818078
:10089000C18001810C2141810021818170470000CC
:1008A0000FB4054B10B503A9044A029800F017F8DD
:1008B00010BC5DF814FB0000590A0008300000204D
:1008C00002E008C8121F08C1002AFAD17047704719
:1008D000002001E001C1121F002AFBD170472DE961
:1008E000F84F9946924688460546002706E0252897
:1008F0000AD051464A4690476D1C7F1C2878002834
:10090000F5D13846BDE8F88F002315F8011F1846C9
:100910002E2915D115F8011F04232A290DD06FF0B7
:100920002F022978A1F13004092C09D800EB8000AE
:1009300002EB400008446D1CF3E758F8040B6D1CF3
:100940002A78002ADDD0632A07D0732A0FD01046F8
:1009500051464A4690477F1C2AE018F8042B8DF830
:10096000002000218DF801106E46012103E058F8A7
:10097000046B4FF0FF315A074FF0000401D409E037
:10098000641C84420BDA8C42FADB325D002AF7D118
:1009900005E0641C8C42FCDB305D0028F9D1274463
:1009A00004E016F8010B51464A469047641EF8D2FF
:1009B0006D1CA3E710B56FF00400FFF7A3FD04481A
:1009C00000680449B0FBF1F00349086010BD000065
:1009D0000000002000127A001800002010B5044624
:1009E0004FF47A7104FB01F000F002F810BD000032
:1009F00010B5184B1B6800FB03F2012805D1A2F1CA
:100A000008034FF0E024636104E0A2F10A034FF011
:100A1000E024636100234FF0E024A36123461B69B7
:100A200043F00103236100BF4FF0E023196901F097
:100A300001031BB101F48033002BF5D04FF0E0230C
:100A40001B6923F001034FF0E02423610023A3611D
:100A500010BD00001800002070B504460D46E1B23C
:100A60000548FFF70CFF00BF80210348FFF73AFE5F
:100A70000028F9D0204670BD0038014008B5FFF7C6
:100A800099FF4FF4E13000F05FF801211020FFF7EB
:100A90003BFC4FF40050ADF8000010208DF803002F
:100AA00003208DF8020069461548FFF74DFB4FF40F
:100AB00000511348FFF7D3FB20E04FF400511048DA
:100AC000FFF7CFFB0FA0FFF7EBFE4FF4FA70FFF735
:100AD00085FF4FF400510A48FFF7C1FB0CA0FFF758
:100AE000DFFE4FF4FA70FFF779FF00F01DF80446BF
:100AF0001CB1214609A0FFF7D3FE00BFDDE70000CF
:100B0000001001404C4544204F4E210D0A000000CA
:100B10004C4544204F4646210D0A00006461746133
:100B2000203D2025730D0A0000B5054800780128F6
:100B300003D100F077F8034800BD0020FCE7000077
:100B4000160000203400002010B586B004460121B4
:100B500044F20500FFF7D8FB05A8FFF784FB4FF42C
:100B60000070ADF8140018208DF8170003208DF8E0
:100B7000160005A92948FFF7E7FA05A8FFF773FB58
:100B80004FF48060ADF8140004208DF8170005A91B
:100B90002248FFF7D9FA01218803FFF7B5FB204867
:100BA000FFF752FD01A8FFF76EFE01940020ADF89B
:100BB0000800ADF80A00ADF80C000C20ADF80E00EE
:100BC0000020ADF8100001A91548FFF7E7FD20212E
:100BD0001348FFF715FD10211148FFF711FD012201
:100BE00040F225510E48FFF7B4FD012240F22441A6
:100BF0000B48FFF7AEFD01210948FFF719FD25203D
:100C00008DF8000001208DF801008DF802008DF8AC
:100C100003006846FFF730FB06B010BD0008014036
:100C200000380140002002490880024908707047DE
:100C30001400002016000020580C000800000020BE
:100C400034000000C00800088C0C000834000020AC
:100C500004080000D008000800A24A0400000000B8
:100C6000000000000102030406070809000000005C
:100C70000000000000000000010203040102030460
:0C0C800006070809020406080000000036
:04000005080000ED02
:00000001FF
